{
  "contractName": "Authorization",
  "abi": [
    {
      "constant": true,
      "inputs": [
        {
          "name": "",
          "type": "address"
        }
      ],
      "name": "authorized",
      "outputs": [
        {
          "name": "",
          "type": "uint256"
        }
      ],
      "payable": false,
      "stateMutability": "view",
      "type": "function"
    },
    {
      "inputs": [],
      "payable": false,
      "stateMutability": "nonpayable",
      "type": "constructor"
    },
    {
      "anonymous": false,
      "inputs": [
        {
          "indexed": true,
          "name": "added",
          "type": "address"
        },
        {
          "indexed": true,
          "name": "adder",
          "type": "address"
        }
      ],
      "name": "AuthAdded",
      "type": "event"
    },
    {
      "anonymous": false,
      "inputs": [
        {
          "indexed": true,
          "name": "removed",
          "type": "address"
        },
        {
          "indexed": true,
          "name": "remover",
          "type": "address"
        }
      ],
      "name": "AuthRemoved",
      "type": "event"
    },
    {
      "constant": false,
      "inputs": [
        {
          "name": "user",
          "type": "address"
        }
      ],
      "name": "addAuthorized",
      "outputs": [],
      "payable": false,
      "stateMutability": "nonpayable",
      "type": "function"
    },
    {
      "constant": false,
      "inputs": [
        {
          "name": "user",
          "type": "address"
        }
      ],
      "name": "removeAuthorized",
      "outputs": [],
      "payable": false,
      "stateMutability": "nonpayable",
      "type": "function"
    }
  ],
  "bytecode": "0x608060405234801561001057600080fd5b5060016000803373ffffffffffffffffffffffffffffffffffffffff1673ffffffffffffffffffffffffffffffffffffffff168152602001908152602001600020819055503373ffffffffffffffffffffffffffffffffffffffff16600073ffffffffffffffffffffffffffffffffffffffff167f9bf985bcdd4b7e345e5c2bfa739e6eb1c10850c657264e02e7b5e33d03ce89e960405160405180910390a3610363806100bf6000396000f3fe608060405234801561001057600080fd5b506004361061005e576000357c010000000000000000000000000000000000000000000000000000000090048063485d7d9414610063578063b9181611146100a7578063cf1c316a146100ff575b600080fd5b6100a56004803603602081101561007957600080fd5b81019080803573ffffffffffffffffffffffffffffffffffffffff169060200190929190505050610143565b005b6100e9600480360360208110156100bd57600080fd5b81019080803573ffffffffffffffffffffffffffffffffffffffff169060200190929190505050610231565b6040518082815260200191505060405180910390f35b6101416004803603602081101561011557600080fd5b81019080803573ffffffffffffffffffffffffffffffffffffffff169060200190929190505050610249565b005b60016000803373ffffffffffffffffffffffffffffffffffffffff1673ffffffffffffffffffffffffffffffffffffffff1681526020019081526020016000205414151561019057600080fd5b60008060008373ffffffffffffffffffffffffffffffffffffffff1673ffffffffffffffffffffffffffffffffffffffff168152602001908152602001600020819055503373ffffffffffffffffffffffffffffffffffffffff168173ffffffffffffffffffffffffffffffffffffffff167faabd46947dfecfcf0332b5719dd67538cac558fdafa24368c2367c86cdcb99b160405160405180910390a350565b60006020528060005260406000206000915090505481565b60016000803373ffffffffffffffffffffffffffffffffffffffff1673ffffffffffffffffffffffffffffffffffffffff1681526020019081526020016000205414151561029657600080fd5b60016000808373ffffffffffffffffffffffffffffffffffffffff1673ffffffffffffffffffffffffffffffffffffffff168152602001908152602001600020819055503373ffffffffffffffffffffffffffffffffffffffff168173ffffffffffffffffffffffffffffffffffffffff167f9bf985bcdd4b7e345e5c2bfa739e6eb1c10850c657264e02e7b5e33d03ce89e960405160405180910390a35056fea165627a7a72305820aeca68e0ab3d97fa26854c72d0ee43c24b4622a2c52d08f76a6b594245551d3b0029",
  "source": "pragma solidity ^0.5.2;\n\n/**\n* @title Authorization\n* @dev provides auth-protected functionality\n*/\ncontract Authorization {\n\n    event AuthAdded(\n        address indexed added,\n        address indexed adder\n    );\n\n    event AuthRemoved(\n        address indexed removed,\n        address indexed remover\n    );\n\n    // user address => auth. 1 = authorized, 0 = unauthorized\n    mapping (address => uint) public authorized;\n\n    // authorize deployer of the contract\n    constructor() public { \n        authorized[msg.sender] = 1;\n        emit AuthAdded(address(0), msg.sender);\n    }\n\n    // require authorization to call function\n    modifier auth() {\n        require(authorized[msg.sender] == 1);\n        _;\n    }\n\n    /**\n    * @dev Add user to authorized users. Can only be called by another\n    * authorized user.\n    * @param user the user to authorize\n    */\n    function addAuthorized(address user) external auth {\n        authorized[user] = 1;\n        emit AuthAdded(user, msg.sender);\n    }\n\n    /**\n    * @dev Remove user's authorization. Can only be called by the same user\n    * or another authorized user\n    * @param user The user to de-authorize\n    */\n    function removeAuthorized(address user) external auth {\n        authorized[user] = 0;\n        emit AuthRemoved(user, msg.sender);\n    }\n\n}",
  "sourcePath": "/home/nick/BlockchainProjects/disberse-dashboard/contracts/Authorization.sol",
  "compiler": {
    "name": "solc",
    "version": "0.5.2+commit.1df8f40c.Emscripten.clang"
  },
  "schemaVersion": "3.0.1",
  "updatedAt": "2019-02-10T22:15:54.961Z",
  "devdoc": {
    "details": "provides auth-protected functionality",
    "methods": {
      "addAuthorized(address)": {
        "details": "Add user to authorized users. Can only be called by another authorized user.",
        "params": {
          "user": "the user to authorize"
        }
      },
      "removeAuthorized(address)": {
        "details": "Remove user's authorization. Can only be called by the same user or another authorized user",
        "params": {
          "user": "The user to de-authorize"
        }
      }
    },
    "title": "Authorization"
  },
  "userdoc": {
    "methods": {}
  }
}