{
  "contractName": "Payments",
  "abi": [
    {
      "constant": true,
      "inputs": [
        {
          "name": "",
          "type": "address"
        }
      ],
      "name": "balances",
      "outputs": [
        {
          "name": "",
          "type": "uint256"
        }
      ],
      "payable": false,
      "stateMutability": "view",
      "type": "function",
      "signature": "0x27e235e3"
    },
    {
      "constant": false,
      "inputs": [
        {
          "name": "user",
          "type": "address"
        }
      ],
      "name": "removeAuthorized",
      "outputs": [],
      "payable": false,
      "stateMutability": "nonpayable",
      "type": "function",
      "signature": "0x485d7d94"
    },
    {
      "constant": true,
      "inputs": [
        {
          "name": "",
          "type": "address"
        }
      ],
      "name": "authorized",
      "outputs": [
        {
          "name": "",
          "type": "bool"
        }
      ],
      "payable": false,
      "stateMutability": "view",
      "type": "function",
      "signature": "0xb9181611"
    },
    {
      "constant": false,
      "inputs": [
        {
          "name": "user",
          "type": "address"
        }
      ],
      "name": "addAuthorized",
      "outputs": [],
      "payable": false,
      "stateMutability": "nonpayable",
      "type": "function",
      "signature": "0xcf1c316a"
    },
    {
      "anonymous": false,
      "inputs": [
        {
          "indexed": true,
          "name": "sender",
          "type": "address"
        },
        {
          "indexed": true,
          "name": "recipient",
          "type": "address"
        },
        {
          "indexed": false,
          "name": "amount",
          "type": "uint256"
        }
      ],
      "name": "FundsTransferred",
      "type": "event",
      "signature": "0x78e6250172d8e0a57d8d41f480f13581571a2d27bb2a93f5f7bd2511f5c22a6c"
    },
    {
      "anonymous": false,
      "inputs": [
        {
          "indexed": true,
          "name": "recipient",
          "type": "address"
        },
        {
          "indexed": true,
          "name": "minter",
          "type": "address"
        },
        {
          "indexed": false,
          "name": "amount",
          "type": "uint256"
        }
      ],
      "name": "FundsAdded",
      "type": "event",
      "signature": "0x55f368ec5df1aca853572d5a6cbda215a84cf17a93c765932dcfb1c237df2eca"
    },
    {
      "anonymous": false,
      "inputs": [
        {
          "indexed": true,
          "name": "holder",
          "type": "address"
        },
        {
          "indexed": true,
          "name": "burner",
          "type": "address"
        },
        {
          "indexed": false,
          "name": "amount",
          "type": "uint256"
        }
      ],
      "name": "FundsBurned",
      "type": "event",
      "signature": "0xd3fda22e13f8cb743a9ceaca6e14022b6677188d20f3c3047f5c9033e07a4e87"
    },
    {
      "anonymous": false,
      "inputs": [
        {
          "indexed": true,
          "name": "added",
          "type": "address"
        },
        {
          "indexed": true,
          "name": "adder",
          "type": "address"
        }
      ],
      "name": "AuthAdded",
      "type": "event",
      "signature": "0x9bf985bcdd4b7e345e5c2bfa739e6eb1c10850c657264e02e7b5e33d03ce89e9"
    },
    {
      "anonymous": false,
      "inputs": [
        {
          "indexed": true,
          "name": "removed",
          "type": "address"
        },
        {
          "indexed": true,
          "name": "remover",
          "type": "address"
        }
      ],
      "name": "AuthRemoved",
      "type": "event",
      "signature": "0xaabd46947dfecfcf0332b5719dd67538cac558fdafa24368c2367c86cdcb99b1"
    },
    {
      "constant": false,
      "inputs": [
        {
          "name": "recipient",
          "type": "address"
        },
        {
          "name": "amount",
          "type": "uint256"
        }
      ],
      "name": "transferFunds",
      "outputs": [
        {
          "name": "",
          "type": "bool"
        }
      ],
      "payable": false,
      "stateMutability": "nonpayable",
      "type": "function",
      "signature": "0x990dc9db"
    },
    {
      "constant": false,
      "inputs": [
        {
          "name": "recipient",
          "type": "address"
        },
        {
          "name": "amount",
          "type": "uint256"
        }
      ],
      "name": "addFunds",
      "outputs": [
        {
          "name": "",
          "type": "bool"
        }
      ],
      "payable": false,
      "stateMutability": "nonpayable",
      "type": "function",
      "signature": "0xbc4b3365"
    },
    {
      "constant": false,
      "inputs": [
        {
          "name": "holder",
          "type": "address"
        },
        {
          "name": "amount",
          "type": "uint256"
        }
      ],
      "name": "burnFunds",
      "outputs": [
        {
          "name": "",
          "type": "bool"
        }
      ],
      "payable": false,
      "stateMutability": "nonpayable",
      "type": "function",
      "signature": "0x319ccd24"
    }
  ],
  "bytecode": "0x608060405260016000803373ffffffffffffffffffffffffffffffffffffffff1673ffffffffffffffffffffffffffffffffffffffff16815260200190815260200160002060006101000a81548160ff0219169083151502179055503373ffffffffffffffffffffffffffffffffffffffff16600073ffffffffffffffffffffffffffffffffffffffff167f9bf985bcdd4b7e345e5c2bfa739e6eb1c10850c657264e02e7b5e33d03ce89e960405160405180910390a3610bc3806100c56000396000f3fe608060405234801561001057600080fd5b506004361061009a576000357c010000000000000000000000000000000000000000000000000000000090048063990dc9db11610078578063990dc9db146101a1578063b918161114610207578063bc4b336514610263578063cf1c316a146102c95761009a565b806327e235e31461009f578063319ccd24146100f7578063485d7d941461015d575b600080fd5b6100e1600480360360208110156100b557600080fd5b81019080803573ffffffffffffffffffffffffffffffffffffffff16906020019092919050505061030d565b6040518082815260200191505060405180910390f35b6101436004803603604081101561010d57600080fd5b81019080803573ffffffffffffffffffffffffffffffffffffffff16906020019092919080359060200190929190505050610325565b604051808215151515815260200191505060405180910390f35b61019f6004803603602081101561017357600080fd5b81019080803573ffffffffffffffffffffffffffffffffffffffff1690602001909291905050506104eb565b005b6101ed600480360360408110156101b757600080fd5b81019080803573ffffffffffffffffffffffffffffffffffffffff1690602001909291908035906020019092919050505061065f565b604051808215151515815260200191505060405180910390f35b6102496004803603602081101561021d57600080fd5b81019080803573ffffffffffffffffffffffffffffffffffffffff1690602001909291905050506107fa565b604051808215151515815260200191505060405180910390f35b6102af6004803603604081101561027957600080fd5b81019080803573ffffffffffffffffffffffffffffffffffffffff1690602001909291908035906020019092919050505061081a565b604051808215151515815260200191505060405180910390f35b61030b600480360360208110156102df57600080fd5b81019080803573ffffffffffffffffffffffffffffffffffffffff1690602001909291905050506109e0565b005b60016020528060005260406000206000915090505481565b60008060003373ffffffffffffffffffffffffffffffffffffffff1673ffffffffffffffffffffffffffffffffffffffff16815260200190815260200160002060009054906101000a900460ff1615156103e7576040517f08c379a000000000000000000000000000000000000000000000000000000000815260040180806020018281038252600e8152602001807f4e6f7420617574686f72697a656400000000000000000000000000000000000081525060200191505060405180910390fd5b61043982600160008673ffffffffffffffffffffffffffffffffffffffff1673ffffffffffffffffffffffffffffffffffffffff16815260200190815260200160002054610b5490919063ffffffff16565b600160008573ffffffffffffffffffffffffffffffffffffffff1673ffffffffffffffffffffffffffffffffffffffff168152602001908152602001600020819055503373ffffffffffffffffffffffffffffffffffffffff168373ffffffffffffffffffffffffffffffffffffffff167fd3fda22e13f8cb743a9ceaca6e14022b6677188d20f3c3047f5c9033e07a4e87846040518082815260200191505060405180910390a36001905092915050565b6000803373ffffffffffffffffffffffffffffffffffffffff1673ffffffffffffffffffffffffffffffffffffffff16815260200190815260200160002060009054906101000a900460ff1615156105ab576040517f08c379a000000000000000000000000000000000000000000000000000000000815260040180806020018281038252600e8152602001807f4e6f7420617574686f72697a656400000000000000000000000000000000000081525060200191505060405180910390fd5b60008060008373ffffffffffffffffffffffffffffffffffffffff1673ffffffffffffffffffffffffffffffffffffffff16815260200190815260200160002060006101000a81548160ff0219169083151502179055503373ffffffffffffffffffffffffffffffffffffffff168173ffffffffffffffffffffffffffffffffffffffff167faabd46947dfecfcf0332b5719dd67538cac558fdafa24368c2367c86cdcb99b160405160405180910390a350565b60006106b382600160003373ffffffffffffffffffffffffffffffffffffffff1673ffffffffffffffffffffffffffffffffffffffff16815260200190815260200160002054610b5490919063ffffffff16565b600160003373ffffffffffffffffffffffffffffffffffffffff1673ffffffffffffffffffffffffffffffffffffffff1681526020019081526020016000208190555061074882600160008673ffffffffffffffffffffffffffffffffffffffff1673ffffffffffffffffffffffffffffffffffffffff16815260200190815260200160002054610b7690919063ffffffff16565b600160008573ffffffffffffffffffffffffffffffffffffffff1673ffffffffffffffffffffffffffffffffffffffff168152602001908152602001600020819055508273ffffffffffffffffffffffffffffffffffffffff163373ffffffffffffffffffffffffffffffffffffffff167f78e6250172d8e0a57d8d41f480f13581571a2d27bb2a93f5f7bd2511f5c22a6c846040518082815260200191505060405180910390a36001905092915050565b60006020528060005260406000206000915054906101000a900460ff1681565b60008060003373ffffffffffffffffffffffffffffffffffffffff1673ffffffffffffffffffffffffffffffffffffffff16815260200190815260200160002060009054906101000a900460ff1615156108dc576040517f08c379a000000000000000000000000000000000000000000000000000000000815260040180806020018281038252600e8152602001807f4e6f7420617574686f72697a656400000000000000000000000000000000000081525060200191505060405180910390fd5b61092e82600160008673ffffffffffffffffffffffffffffffffffffffff1673ffffffffffffffffffffffffffffffffffffffff16815260200190815260200160002054610b7690919063ffffffff16565b600160008573ffffffffffffffffffffffffffffffffffffffff1673ffffffffffffffffffffffffffffffffffffffff168152602001908152602001600020819055503373ffffffffffffffffffffffffffffffffffffffff168373ffffffffffffffffffffffffffffffffffffffff167f55f368ec5df1aca853572d5a6cbda215a84cf17a93c765932dcfb1c237df2eca846040518082815260200191505060405180910390a36001905092915050565b6000803373ffffffffffffffffffffffffffffffffffffffff1673ffffffffffffffffffffffffffffffffffffffff16815260200190815260200160002060009054906101000a900460ff161515610aa0576040517f08c379a000000000000000000000000000000000000000000000000000000000815260040180806020018281038252600e8152602001807f4e6f7420617574686f72697a656400000000000000000000000000000000000081525060200191505060405180910390fd5b60016000808373ffffffffffffffffffffffffffffffffffffffff1673ffffffffffffffffffffffffffffffffffffffff16815260200190815260200160002060006101000a81548160ff0219169083151502179055503373ffffffffffffffffffffffffffffffffffffffff168173ffffffffffffffffffffffffffffffffffffffff167f9bf985bcdd4b7e345e5c2bfa739e6eb1c10850c657264e02e7b5e33d03ce89e960405160405180910390a350565b6000828211151515610b6557600080fd5b600082840390508091505092915050565b6000808284019050838110151515610b8d57600080fd5b809150509291505056fea165627a7a723058207a17521051637be060766f19731f90c766e4bcd521d53d75189885dcf92e15760029",
  "source": "pragma solidity ^0.5.2;\n \nimport \"./Authorization.sol\";\nimport \"openzeppelin-solidity/contracts/math/SafeMath.sol\";\n\ncontract Payments is Authorization {\n\n    // library to provide arithmetic with integer overflow / underflow checking\n    using SafeMath for uint256;\n\n    event FundsTransferred(\n        address indexed sender,\n        address indexed recipient,\n        uint amount\n    );\n\n    event FundsAdded(\n        address indexed recipient,\n        address indexed minter,\n        uint amount\n    );\n\n    event FundsBurned(\n        address indexed holder,\n        address indexed burner,\n        uint amount\n    );\n\n    // track users' balances\n    mapping (address => uint) public balances;\n\n    /**\n    * @dev Allows user to transfer funds to another address\n    * @param recipient The recipient of the transfer\n    * @param amount Amount to transfer\n    * @return boolean indicating success of the transfer\n    */\n    function transferFunds(address recipient, uint amount) external returns (bool) {\n        // deduct balance from sender. Note that this also asserts that\n        // the sender has sufficient funds by checking for integer underflow\n        balances[msg.sender] = balances[msg.sender].sub(amount);\n\n        // add to recipient's balance\n        balances[recipient] = balances[recipient].add(amount);\n\n        emit FundsTransferred(msg.sender, recipient, amount);\n        return true;\n    }\n\n    /**\n    * @dev Allows authorized addresses to mint funds to a user's account,\n    * simulating an equivalent deposit with Disberse\n    * @param recipient The address to mint funds to\n    * @param amount Amount of funds to mint\n    * @return boolean indicating success\n    */\n    function addFunds(address recipient, uint amount) external auth returns (bool) {\n        balances[recipient] = balances[recipient].add(amount);\n        emit FundsAdded(recipient, msg.sender, amount);\n        return true;\n    }\n\n    /**\n    * @dev Allows authorized addresses to burn funds from a user's account,\n    * simulating an equivalent withdrawal with Disberse\n    * @param holder Address to burn the funds from\n    * @param amount Amount of funds to burn\n    * @return boolean indicating success\n    */\n    function burnFunds(address holder, uint amount) external auth returns (bool) {\n        balances[holder] = balances[holder].sub(amount);\n        emit FundsBurned(holder, msg.sender, amount);\n        return true;\n    }\n}\n",
  "sourcePath": "/home/nick/BlockchainProjects/disberse-dashboard/contracts/Payments.sol",
  "compiler": {
    "name": "solc",
    "version": "0.5.2+commit.1df8f40c.Emscripten.clang"
  },
  "schemaVersion": "3.0.1",
  "updatedAt": "2019-02-25T08:56:05.570Z",
  "devdoc": {
    "methods": {
      "addAuthorized(address)": {
        "details": "Add user to authorized users. Can only be called by another authorized user.",
        "params": {
          "user": "the user to authorize"
        }
      },
      "addFunds(address,uint256)": {
        "details": "Allows authorized addresses to mint funds to a user's account, simulating an equivalent deposit with Disberse",
        "params": {
          "amount": "Amount of funds to mint",
          "recipient": "The address to mint funds to"
        },
        "return": "boolean indicating success"
      },
      "burnFunds(address,uint256)": {
        "details": "Allows authorized addresses to burn funds from a user's account, simulating an equivalent withdrawal with Disberse",
        "params": {
          "amount": "Amount of funds to burn",
          "holder": "Address to burn the funds from"
        },
        "return": "boolean indicating success"
      },
      "removeAuthorized(address)": {
        "details": "Remove user's authorization. Can only be called by the same user or another authorized user",
        "params": {
          "user": "The user to de-authorize"
        }
      },
      "transferFunds(address,uint256)": {
        "details": "Allows user to transfer funds to another address",
        "params": {
          "amount": "Amount to transfer",
          "recipient": "The recipient of the transfer"
        },
        "return": "boolean indicating success of the transfer"
      }
    }
  },
  "userdoc": {
    "methods": {}
  }
}