{
  "contractName": "Payments",
  "abi": [
    {
      "constant": true,
      "inputs": [
        {
          "name": "",
          "type": "address"
        }
      ],
      "name": "balances",
      "outputs": [
        {
          "name": "",
          "type": "uint256"
        }
      ],
      "payable": false,
      "stateMutability": "view",
      "type": "function",
      "signature": "0x27e235e3"
    },
    {
      "constant": false,
      "inputs": [
        {
          "name": "user",
          "type": "address"
        }
      ],
      "name": "removeAuthorized",
      "outputs": [],
      "payable": false,
      "stateMutability": "nonpayable",
      "type": "function",
      "signature": "0x485d7d94"
    },
    {
      "constant": true,
      "inputs": [],
      "name": "num",
      "outputs": [
        {
          "name": "",
          "type": "uint256"
        }
      ],
      "payable": false,
      "stateMutability": "view",
      "type": "function",
      "signature": "0x4e70b1dc"
    },
    {
      "constant": true,
      "inputs": [
        {
          "name": "",
          "type": "address"
        }
      ],
      "name": "authorized",
      "outputs": [
        {
          "name": "",
          "type": "uint256"
        }
      ],
      "payable": false,
      "stateMutability": "view",
      "type": "function",
      "signature": "0xb9181611"
    },
    {
      "constant": false,
      "inputs": [
        {
          "name": "user",
          "type": "address"
        }
      ],
      "name": "addAuthorized",
      "outputs": [],
      "payable": false,
      "stateMutability": "nonpayable",
      "type": "function",
      "signature": "0xcf1c316a"
    },
    {
      "anonymous": false,
      "inputs": [
        {
          "indexed": true,
          "name": "sender",
          "type": "address"
        },
        {
          "indexed": true,
          "name": "recipient",
          "type": "address"
        },
        {
          "indexed": false,
          "name": "amount",
          "type": "uint256"
        }
      ],
      "name": "FundsTransferred",
      "type": "event",
      "signature": "0x78e6250172d8e0a57d8d41f480f13581571a2d27bb2a93f5f7bd2511f5c22a6c"
    },
    {
      "anonymous": false,
      "inputs": [
        {
          "indexed": true,
          "name": "recipient",
          "type": "address"
        },
        {
          "indexed": true,
          "name": "minter",
          "type": "address"
        },
        {
          "indexed": false,
          "name": "amount",
          "type": "uint256"
        }
      ],
      "name": "FundsAdded",
      "type": "event",
      "signature": "0x55f368ec5df1aca853572d5a6cbda215a84cf17a93c765932dcfb1c237df2eca"
    },
    {
      "anonymous": false,
      "inputs": [
        {
          "indexed": true,
          "name": "holder",
          "type": "address"
        },
        {
          "indexed": true,
          "name": "burner",
          "type": "address"
        },
        {
          "indexed": false,
          "name": "amount",
          "type": "uint256"
        }
      ],
      "name": "FundsBurned",
      "type": "event",
      "signature": "0xd3fda22e13f8cb743a9ceaca6e14022b6677188d20f3c3047f5c9033e07a4e87"
    },
    {
      "anonymous": false,
      "inputs": [
        {
          "indexed": true,
          "name": "added",
          "type": "address"
        },
        {
          "indexed": true,
          "name": "adder",
          "type": "address"
        }
      ],
      "name": "AuthAdded",
      "type": "event",
      "signature": "0x9bf985bcdd4b7e345e5c2bfa739e6eb1c10850c657264e02e7b5e33d03ce89e9"
    },
    {
      "anonymous": false,
      "inputs": [
        {
          "indexed": true,
          "name": "removed",
          "type": "address"
        },
        {
          "indexed": true,
          "name": "remover",
          "type": "address"
        }
      ],
      "name": "AuthRemoved",
      "type": "event",
      "signature": "0xaabd46947dfecfcf0332b5719dd67538cac558fdafa24368c2367c86cdcb99b1"
    },
    {
      "constant": false,
      "inputs": [
        {
          "name": "recipient",
          "type": "address"
        },
        {
          "name": "amount",
          "type": "uint256"
        }
      ],
      "name": "transferFunds",
      "outputs": [
        {
          "name": "",
          "type": "bool"
        }
      ],
      "payable": false,
      "stateMutability": "nonpayable",
      "type": "function",
      "signature": "0x990dc9db"
    },
    {
      "constant": false,
      "inputs": [
        {
          "name": "recipient",
          "type": "address"
        },
        {
          "name": "amount",
          "type": "uint256"
        }
      ],
      "name": "addFunds",
      "outputs": [
        {
          "name": "",
          "type": "bool"
        }
      ],
      "payable": false,
      "stateMutability": "nonpayable",
      "type": "function",
      "signature": "0xbc4b3365"
    },
    {
      "constant": false,
      "inputs": [
        {
          "name": "holder",
          "type": "address"
        },
        {
          "name": "amount",
          "type": "uint256"
        }
      ],
      "name": "burnFunds",
      "outputs": [
        {
          "name": "",
          "type": "bool"
        }
      ],
      "payable": false,
      "stateMutability": "nonpayable",
      "type": "function",
      "signature": "0x319ccd24"
    }
  ],
  "bytecode": "0x6080604052600360025560016000803373ffffffffffffffffffffffffffffffffffffffff1673ffffffffffffffffffffffffffffffffffffffff168152602001908152602001600020819055503373ffffffffffffffffffffffffffffffffffffffff16600073ffffffffffffffffffffffffffffffffffffffff167f9bf985bcdd4b7e345e5c2bfa739e6eb1c10850c657264e02e7b5e33d03ce89e960405160405180910390a36109f4806100b76000396000f3fe608060405234801561001057600080fd5b50600436106100a5576000357c010000000000000000000000000000000000000000000000000000000090048063990dc9db11610078578063990dc9db146101ca578063b918161114610230578063bc4b336514610288578063cf1c316a146102ee576100a5565b806327e235e3146100aa578063319ccd2414610102578063485d7d94146101685780634e70b1dc146101ac575b600080fd5b6100ec600480360360208110156100c057600080fd5b81019080803573ffffffffffffffffffffffffffffffffffffffff169060200190929190505050610332565b6040518082815260200191505060405180910390f35b61014e6004803603604081101561011857600080fd5b81019080803573ffffffffffffffffffffffffffffffffffffffff1690602001909291908035906020019092919050505061034a565b604051808215151515815260200191505060405180910390f35b6101aa6004803603602081101561017e57600080fd5b81019080803573ffffffffffffffffffffffffffffffffffffffff16906020019092919050505061049d565b005b6101b461058b565b6040518082815260200191505060405180910390f35b610216600480360360408110156101e057600080fd5b81019080803573ffffffffffffffffffffffffffffffffffffffff16906020019092919080359060200190929190505050610591565b604051808215151515815260200191505060405180910390f35b6102726004803603602081101561024657600080fd5b81019080803573ffffffffffffffffffffffffffffffffffffffff16906020019092919050505061072c565b6040518082815260200191505060405180910390f35b6102d46004803603604081101561029e57600080fd5b81019080803573ffffffffffffffffffffffffffffffffffffffff16906020019092919080359060200190929190505050610744565b604051808215151515815260200191505060405180910390f35b6103306004803603602081101561030457600080fd5b81019080803573ffffffffffffffffffffffffffffffffffffffff169060200190929190505050610897565b005b60016020528060005260406000206000915090505481565b600060016000803373ffffffffffffffffffffffffffffffffffffffff1673ffffffffffffffffffffffffffffffffffffffff1681526020019081526020016000205414151561039957600080fd5b6103eb82600160008673ffffffffffffffffffffffffffffffffffffffff1673ffffffffffffffffffffffffffffffffffffffff1681526020019081526020016000205461098590919063ffffffff16565b600160008573ffffffffffffffffffffffffffffffffffffffff1673ffffffffffffffffffffffffffffffffffffffff168152602001908152602001600020819055503373ffffffffffffffffffffffffffffffffffffffff168373ffffffffffffffffffffffffffffffffffffffff167fd3fda22e13f8cb743a9ceaca6e14022b6677188d20f3c3047f5c9033e07a4e87846040518082815260200191505060405180910390a36001905092915050565b60016000803373ffffffffffffffffffffffffffffffffffffffff1673ffffffffffffffffffffffffffffffffffffffff168152602001908152602001600020541415156104ea57600080fd5b60008060008373ffffffffffffffffffffffffffffffffffffffff1673ffffffffffffffffffffffffffffffffffffffff168152602001908152602001600020819055503373ffffffffffffffffffffffffffffffffffffffff168173ffffffffffffffffffffffffffffffffffffffff167faabd46947dfecfcf0332b5719dd67538cac558fdafa24368c2367c86cdcb99b160405160405180910390a350565b60025481565b60006105e582600160003373ffffffffffffffffffffffffffffffffffffffff1673ffffffffffffffffffffffffffffffffffffffff1681526020019081526020016000205461098590919063ffffffff16565b600160003373ffffffffffffffffffffffffffffffffffffffff1673ffffffffffffffffffffffffffffffffffffffff1681526020019081526020016000208190555061067a82600160008673ffffffffffffffffffffffffffffffffffffffff1673ffffffffffffffffffffffffffffffffffffffff168152602001908152602001600020546109a790919063ffffffff16565b600160008573ffffffffffffffffffffffffffffffffffffffff1673ffffffffffffffffffffffffffffffffffffffff168152602001908152602001600020819055508273ffffffffffffffffffffffffffffffffffffffff163373ffffffffffffffffffffffffffffffffffffffff167f78e6250172d8e0a57d8d41f480f13581571a2d27bb2a93f5f7bd2511f5c22a6c846040518082815260200191505060405180910390a36001905092915050565b60006020528060005260406000206000915090505481565b600060016000803373ffffffffffffffffffffffffffffffffffffffff1673ffffffffffffffffffffffffffffffffffffffff1681526020019081526020016000205414151561079357600080fd5b6107e582600160008673ffffffffffffffffffffffffffffffffffffffff1673ffffffffffffffffffffffffffffffffffffffff168152602001908152602001600020546109a790919063ffffffff16565b600160008573ffffffffffffffffffffffffffffffffffffffff1673ffffffffffffffffffffffffffffffffffffffff168152602001908152602001600020819055503373ffffffffffffffffffffffffffffffffffffffff168373ffffffffffffffffffffffffffffffffffffffff167f55f368ec5df1aca853572d5a6cbda215a84cf17a93c765932dcfb1c237df2eca846040518082815260200191505060405180910390a36001905092915050565b60016000803373ffffffffffffffffffffffffffffffffffffffff1673ffffffffffffffffffffffffffffffffffffffff168152602001908152602001600020541415156108e457600080fd5b60016000808373ffffffffffffffffffffffffffffffffffffffff1673ffffffffffffffffffffffffffffffffffffffff168152602001908152602001600020819055503373ffffffffffffffffffffffffffffffffffffffff168173ffffffffffffffffffffffffffffffffffffffff167f9bf985bcdd4b7e345e5c2bfa739e6eb1c10850c657264e02e7b5e33d03ce89e960405160405180910390a350565b600082821115151561099657600080fd5b600082840390508091505092915050565b60008082840190508381101515156109be57600080fd5b809150509291505056fea165627a7a72305820b0ad3352c5ee1ed2dc63b7b6a6beefe6a05decee72a40eeb205da1ba6a348a160029",
  "source": "pragma solidity ^0.5.2;\n \nimport \"./Authorization.sol\";\nimport \"openzeppelin-solidity/contracts/math/SafeMath.sol\";\n\ncontract Payments is Authorization {\n\n    // library to provide arithmetic with integer overflow / underflow checking\n    using SafeMath for uint256;\n\n    event FundsTransferred(\n        address indexed sender,\n        address indexed recipient,\n        uint amount\n    );\n\n    event FundsAdded(\n        address indexed recipient,\n        address indexed minter,\n        uint amount\n    );\n\n    event FundsBurned(\n        address indexed holder,\n        address indexed burner,\n        uint amount\n    );\n\n    // track users' balances\n    mapping (address => uint) public balances;\n\n    uint public num = 3;\n\n    /**\n    * @dev Allows user to transfer funds to another address\n    * @param recipient The recipient of the transfer\n    * @param amount Amount to transfer\n    * @return boolean indicating success of the transfer\n    */\n    function transferFunds(address recipient, uint amount) external returns (bool) {\n        // deduct balance from sender. Note that this also asserts that\n        // the sender has sufficient funds by checking for integer underflow\n        balances[msg.sender] = balances[msg.sender].sub(amount);\n\n        // add to recipient's balance\n        balances[recipient] = balances[recipient].add(amount);\n\n        emit FundsTransferred(msg.sender, recipient, amount);\n        return true;\n    }\n\n    /**\n    * @dev Allows authorized addresses to mint funds to a user's account,\n    * simulating an equivalent deposit with Disberse\n    * @param recipient The address to mint funds to\n    * @param amount Amount of funds to mint\n    * @return boolean indicating success\n    */\n    function addFunds(address recipient, uint amount) external auth returns (bool) {\n        balances[recipient] = balances[recipient].add(amount);\n        emit FundsAdded(recipient, msg.sender, amount);\n        return true;\n    }\n\n    /**\n    * @dev Allows authorized addresses to burn funds from a user's account,\n    * simulating an equivalent withdrawal with Disberse\n    * @param holder Address to burn the funds from\n    * @param amount Amount of funds to burn\n    * @return boolean indicating success\n    */\n    function burnFunds(address holder, uint amount) external auth returns (bool) {\n        balances[holder] = balances[holder].sub(amount);\n        emit FundsBurned(holder, msg.sender, amount);\n        return true;\n    }\n}",
  "sourcePath": "/home/nick/BlockchainProjects/disberse-dashboard/contracts/Payments.sol",
  "compiler": {
    "name": "solc",
    "version": "0.5.2+commit.1df8f40c.Emscripten.clang"
  },
  "schemaVersion": "3.0.1",
  "updatedAt": "2019-02-10T22:15:55.276Z",
  "devdoc": {
    "methods": {
      "addAuthorized(address)": {
        "details": "Add user to authorized users. Can only be called by another authorized user.",
        "params": {
          "user": "the user to authorize"
        }
      },
      "addFunds(address,uint256)": {
        "details": "Allows authorized addresses to mint funds to a user's account, simulating an equivalent deposit with Disberse",
        "params": {
          "amount": "Amount of funds to mint",
          "recipient": "The address to mint funds to"
        },
        "return": "boolean indicating success"
      },
      "burnFunds(address,uint256)": {
        "details": "Allows authorized addresses to burn funds from a user's account, simulating an equivalent withdrawal with Disberse",
        "params": {
          "amount": "Amount of funds to burn",
          "holder": "Address to burn the funds from"
        },
        "return": "boolean indicating success"
      },
      "removeAuthorized(address)": {
        "details": "Remove user's authorization. Can only be called by the same user or another authorized user",
        "params": {
          "user": "The user to de-authorize"
        }
      },
      "transferFunds(address,uint256)": {
        "details": "Allows user to transfer funds to another address",
        "params": {
          "amount": "Amount to transfer",
          "recipient": "The recipient of the transfer"
        },
        "return": "boolean indicating success of the transfer"
      }
    }
  },
  "userdoc": {
    "methods": {}
  }
}